:020000040800F2
:10000000002800201D17000881140008871400082C
:100010008D140008931400089914000800000000D3
:100020000000000000000000000000009F14000815
:10003000AB14000800000000B7140008C314000847
:1000400065170008651700086517000865170008A0
:100050006517000865170008651700086517000890
:100060006517000865170008651700086517000880
:100070006517000865170008651700086517000870
:100080006517000865170008651700086517000860
:100090006517000865170008651700086517000850
:1000A0006517000865170008651700086517000840
:1000B000D11400086517000800000000651700084B
:1000C0006517000800000000000000006517000828
:1000D0000000000065170008651700080000000018
:1000E0006517000865170008651700080000000084
:1000F0000000000000000000000000000000000000
:0C01000000000000000000005FF808F1A3
:10010C0010B5054C237833B9044B13B10448AFF345
:10011C0000800123237010BD94000020000000001B
:10012C00942D000808B5034B1BB103490348AFF3EA
:10013C00008008BD0000000098000020942D0008ED
:10014C0080B400AF064B1B68012B04D1044B00227A
:10015C001A60012300E000231846BD4680BC70479E
:10016C00B000002080B400AF064B1B68012B04D1FB
:10017C00044B00221A60012300E000231846BD4600
:10018C0080BC7047B400002080B400AF064B1B68E5
:10019C00012B04D1044B00221A60012300E0002340
:1001AC001846BD4680BC7047B800002080B400AF34
:1001BC00034B01221A6000BFBD4680BC704700BFD4
:1001CC00B000002080B400AF034B01221A6000BFC6
:1001DC00BD4680BC704700BFB400002080B400AFA7
:1001EC00034B01221A6000BFBD4680BC704700BFA4
:1001FC00B800002080B500AF5C4B1B685C4A1360F4
:10020C005C4B1B68594A13604FF400515A4801F07B
:10021C008FFD03461A46574B1A60554B1A68534BC1
:10022C001B689A4225D1514B1A68524B1B689A4253
:10023C001FD1524B1A684F4B1B689A420DD04D4B35
:10024C001B684E4A13604B4B1B68002B11D1FFF7F8
:10025C00ADFF4B4BC8221A600BE0494B1B68013BAE
:10026C00474A1360464B1B68002B02D1434B0122BB
:10027C001A60444B1B68444A1360444B1B68414A48
:10028C0013604FF480413C4801F052FD03461A467E
:10029C003E4B1A603C4B1A683A4B1B689A4225D16C
:1002AC00384B1A68394B1B689A421FD1384B1A6865
:1002BC00364B1B689A420DD0344B1B68344A136082
:1002CC00324B1B68002B11D1FFF77CFF314BC8223E
:1002DC001A600BE02F4B1B68013B2E4A13602D4B11
:1002EC001B68002B02D12A4B01221A602A4B1B6877
:1002FC002A4A13602A4B1B68274A13604FF40041AB
:10030C001D4801F015FD03461A46254B1A60234B78
:10031C001A68214B1B689A4225D11F4B1A68204B37
:10032C001B689A421FD11F4B1A681D4B1B689A42BF
:10033C000DD01B4B1B681B4A1360194B1B68002B01
:10034C0011D1FFF74BFF184BC8221A600BE0164B6C
:10035C001B68013B144A1360134B1B68002B02D122
:10036C00104B01221A6000BF80BD00BF4401002069
:10037C003C01002034010020001001403801002015
:10038C00100000202C0100204C010020280100202E
:10039C004801002014000020040000200000002070
:1003AC00080000200C0000201800002080B500AFD1
:1003BC0000F024FD6D4B1B68013B032B64D801A29C
:1003CC0052F823F0E1030008FF0300083104000891
:1003DC006304000801F086F8644B02221A60644B37
:1003EC001B68644A1360624B1B68184600F074FE6D
:1003FC0051E001F0A3F8604B1B68012B07D15B4B5C
:10040C0004221A605D4B1B68184600F065FEFFF76E
:10041C0097FE0346012B39D1594B1B680133584ABF
:10042C00136033E001F0B6F8534B1B68012B07D176
:10043C004E4B02221A604E4B1B68184600F04CFEC5
:10044C00FFF77EFE0346012B22D14D4B1B68013377
:10045C004B4A13601CE001F0C9F8474B1B68012B99
:10046C0007D1424B03221A60464B1B68184600F01A
:10047C0033FEFFF765FE0346012B0BD1404B1B6887
:10048C0001333F4A136005E000BF04E000BF02E007
:10049C0000BF00E000BF3C4B1B68013B032B47D85F
:1004AC0001A252F823F000BFC5040008E3040008C1
:1004BC00010500081F05000801F02AF8324B042240
:1004CC001A602E4B1B68314A13602C4B1B68184664
:1004DC0000F018FE33E001F047F82D4B1B68012BA0
:1004EC0028D1294B04221A60244B1B68184600F0B3
:1004FC0009FE1FE001F064F8254B1B68012B1BD192
:10050C00214B02221A601A4B1B68184600F0FAFDA8
:10051C0012E001F081F81E4B1B68012B0ED11A4B17
:10052C0003221A60174B1B68184600F0EBFD05E020
:10053C0000BF04E000BF02E000BF00E000BF104BB2
:10054C001B68022B10D1134B0B221A60114B1B682A
:10055C000D4A13600C4B1B68044A1360002000F01A
:10056C00BBFD002000F0CEFD00BF80BDBC00002014
:10057C007C000020D4000020EC000020840000202F
:10058C00C800002080000020C0000020D8000020FF
:10059C00F4000020C400002080B500AF00F02EFC59
:1005AC009E4B1B68053B062B00F2738101A252F88F
:1005BC0023F000BFFB050008CB0600089B070008D2
:1005CC009F0800089F0800089F080008DD05000828
:1005DC00934B01221A60934B00221A60924B01221A
:1005EC001A6000F009FE8D4B05221A6058E18F4B02
:1005FC0002221A608E4B1B68012B08D101F022F8E5
:10060C008C4B1B6801338B4A136000F0F5FD894B52
:10061C001B68132B0BDD874B00221A60804B0122C9
:10062C001A60854B01221A60844B01221A60FFF775
:10063C0087FD0346012B0DD17A4B00221A607D4BAE
:10064C0000221A60784B01221A6000F0E2FD734B15
:10065C0006221A60FFF786FD0346012B21D1714B50
:10066C001B68002B06D1704B02221A606D4B0122C5
:10067C001A6004E06C4B1B6801336B4A13606A4BC5
:10068C001B68632B02DD684B01221A60674B022248
:10069C001A60684B00221A6000F0AEFD5F4B052219
:1006AC001A60FFF771FD0346012B40F0F4805E4B9E
:1006BC001B68634A1360594B05221A60EBE05B4BD5
:1006CC0003221A605F4B1B68012B08D100F0DCFF82
:1006DC00584B1B680133574A136000F09AFD554B79
:1006EC001B68132B0BDD534B00221A604C4B012261
:1006FC001A60514B01221A60504B01221A60FFF70D
:10070C001FFD0346012B0DD14A4B00221A60454BAD
:10071C0000221A60444B01221A6000F087FD3F4B07
:10072C0007221A60FFF71EFD0346012B21D13D4B1A
:10073C001B68002B06D13C4B02221A60394B01225C
:10074C001A6004E0384B1B680133374A1360364B90
:10075C001B68632B02DD344B01221A60334B0322DE
:10076C001A60344B00221A6000F053FD2B4B06220A
:10077C001A60FFF709FD0346012B40F08E802A4BCF
:10078C001B68314A1360254B06221A6085E0274B03
:10079C0004221A602D4B1B68012B08D100F096FF28
:1007AC00244B1B680133234A136000F03FFD214B9F
:1007BC001B68132B0BDD1F4B00221A60184B0122F8
:1007CC001A601D4B01221A601C4B01221A60FFF7A4
:1007DC00B7FC0346012B11D1164B00221A60104BAB
:1007EC0001221A600F4B00221A600C4B00221A6077
:1007FC00114B01221A60114B01221A60FFF7B2FC57
:10080C000346012B38D1074B1B68002B20D1064B1C
:10081C0002221A60034B01221A601EE0C400002061
:10082C00C8000020D0000020D4000020D8000020F8
:10083C0000010020CC000020BC000020C0000020E3
:10084C007C00002004010020800000200801002012
:10085C00144B1B680133134A1360124B1B68632B38
:10086C0002DD104B01221A600F4B00221A6000F0BF
:10087C00DDFC0E4B07221A60FFF786FC0346012BAA
:10088C000DD1084B1B680A4A1360084B07221A60EB
:10089C0005E000BF04E000BF02E000BF00E000BFC5
:1008AC0000BF80BDD4000020CC000020C40000207C
:1008BC008400002080B500AF00F0A0FA884B1B68C4
:1008CC000C2B00F0B4800C2B00F30881082B02D009
:1008DC00092B56D002E1834B08221A60FFF742FC29
:1008EC000346012B1DD17F4B08221A607E4B002240
:1008FC001A607E4B02221A60794B08221A6000F0B3
:10090C007BFCFFF71DFCFFF73FFC794B1B680133A9
:10091C00774A1360764B1B68622B02DD744B012205
:10092C001A60744B1B68012B08D100F08BFE6E4BC8
:10093C001B6801336C4A136000F05EFC6A4B1B6849
:10094C00132B08DD6C4B01221A606C4B01221A60D0
:10095C00654B00221A60FFF7F3FB0346012B07D10E
:10096C005F4B06221A60604B00221A6000F051FCAB
:10097C00FFF70AFC0346012B03D15D4B1B68604A51
:10098C001360584B09221A60FFF7ECFB0346012B4E
:10099C001DD1544B09221A60534B00221A60534B41
:1009AC0003221A604E4B09221A60FFF7C9FBFFF7AE
:1009BC00EBFB00F02EFC4E4B1B6801334C4A1360D2
:1009CC004B4B1B68622B02DD494B01221A604D4BCD
:1009DC001B68012B08D100F057FE434B1B680133F9
:1009EC00414A136000F015FC3F4B1B68132B08DDCC
:1009FC00414B01221A60414B01221A603A4B0022F2
:100A0C001A60FFF79DFB0346012B07D1344B0722DD
:100A1C001A60354B00221A6000F008FCFFF7B4FB9B
:100A2C000346012B03D1324B1B68374A13602D4B05
:100A3C000C221A60FFF796FB0346012B1AD12A4BA6
:100A4C0000221A60294B04221A60254B0C221A60D2
:100A5C00FFF776FBFFF798FB00F0E8FB244B1B68D5
:100A6C000133234A1360224B1B68622B02DD204B9F
:100A7C0001221A60254B1B68012B08D100F026FEC1
:100A8C00194B1B680133184A136000F0CFFB164B4F
:100A9C001B68132B08DD184B01221A60174B01221F
:100AAC001A60114B00221A60FFF74AFB0346012B18
:100ABC000BD1114B01221A60104B01221A600A4B08
:100ACC0000221A60124B01221A60FFF75DFB0346ED
:100ADC00012B03D1064B1B680E4A136000BF80BD6F
:100AEC00C4000020DC000020CC000020D800002036
:100AFC00D400002000010020BC000020C000002019
:100B0C007C0000200401002080000020080100204F
:100B1C00C80000208400002080B584B000AF78604D
:100B2C002A4A7B6852F82330FB60FB68DBB203F087
:100B3C000103DBB21A460121254801F010F9FB68CC
:100B4C005B10DBB203F00103DBB21A460221204832
:100B5C0001F005F9FB689B10DBB203F00103DBB27B
:100B6C001A4604211A4801F0FAF8FB68DB10DBB2D4
:100B7C0003F00103DBB21A460821154801F0EFF827
:100B8C00FB681B11DBB203F00103DBB21A46102128
:100B9C000F4801F0E4F8FB685B11DBB203F00103D2
:100BAC00DBB21A4620210A4801F0D9F8FB689B11E8
:100BBC00DBB203F00103DBB21A464021044801F01A
:100BCC00CEF800BF1037BD4680BD00BF1C00002012
:100BDC00000C014080B584B000AF78602D4A7B6872
:100BEC0052F82330FB60FB68DBB203F00103DBB28D
:100BFC001A464FF48071284801F0B1F8FB685B107D
:100C0C00DBB203F00103DBB21A464FF40071224849
:100C1C0001F0A5F8FB689B10DBB203F00103DBB21B
:100C2C001A464FF480611C4801F099F8FB68DB1000
:100C3C00DBB203F00103DBB21A464FF40061164835
:100C4C0001F08DF8FB681B11DBB203F00103DBB282
:100C5C001A464FF48051104801F081F8FB685B1183
:100C6C00DBB203F00103DBB21A464FF400510A4821
:100C7C0001F075F8FB689B11DBB203F00103DBB2EA
:100C8C001A464FF48041044801F069F800BF103750
:100C9C00BD4680BD44000020000C014080B400AF74
:100CAC001A4B1B681A4A82FB03129210DB17D31AD9
:100CBC00184A1360154B1968154B83FB01239A10C6
:100CCC00CB17D21A13469B0013445B00CA1A114B64
:100CDC005A60114B1B680E4A82FB03129210DB17F1
:100CEC00D31A0C4A93600C4B1968094B83FB0123F4
:100CFC009A10CB17D21A13469B0013445B00CA1AE6
:100D0C00044BDA6000BFBD4680BC7047D4000020A5
:100D1C00676666666C000020D800002080B582B043
:100D2C0000AF78607B68002B03D07B68012B12D05E
:100D3C0023E000224FF48071124801F010F80122D8
:100D4C004FF400710F4801F00AF80F4B1B6818465E
:100D5C00FFF7E2FE11E001224FF48071094800F028
:100D6C00FEFF00224FF40071064800F0F8FF064B1E
:100D7C005B681846FFF7D0FE00BF00BF0837BD46C2
:100D8C0080BD00BF000801406C00002080B582B01F
:100D9C0000AF78607B68002B03D07B68012B12D0EE
:100DAC0023E000224FF48061124800F0D8FF0122AA
:100DBC004FF400610F4800F0D2FF0F4B9B681846B0
:100DCC00FFF708FF11E001224FF48061094800F0A1
:100DDC00C6FF00224FF40061064800F0C0FF064B2E
:100DEC00DB681846FFF7F6FE00BF00BF0837BD46AC
:100DFC0080BD00BF000801406C00002080B500AF32
:100E0C00184B1B68012B13D1FFF748FF164B1B68BF
:100E1C00012B02DD144B00221A60134B1B685A1C69
:100E2C0011490A601846FFF779FF142000F080F989
:100E3C000E4B1B68012B13D1FFF730FF0C4B1B68BB
:100E4C00012B02DD0A4B00221A60094B1B685A1C4D
:100E5C0007490A601846FFF799FF142000F07CF947
:100E6C0000BF80BD18010020E00000201C01002004
:100E7C00E400002080B500AF00F070FC00F020F81A
:100E8C0000F0A6F800F058F80A4801F0C5FB19204C
:100E9C0000F04EF9192000F05FF9074B01221A609F
:100EAC00064B01221A60FFF781FAFFF775FBFFF77B
:100EBC0001FDF8E750010020BC000020C00000201C
:100ECC0080B590B000AF07F1180328220021184616
:100EDC0001F052FF3B1D00221A605A609A60DA60E2
:100EEC001A610223BB610123BB621023FB62002346
:100EFC007B6307F11803184600F062FF0346002BD2
:100F0C0001D000F0E3F80F237B600023BB600023CB
:100F1C00FB6000233B6100237B613B1D00211846D5
:100F2C0001F0CEF90346002B01D000F0CFF800BF42
:100F3C004037BD4680BD000080B586B000AF07F1DC
:100F4C00080300221A605A609A60DA603B4600225D
:100F5C001A605A601D4B4FF080421A601B4B41F6D1
:100F6C003F725A60194B00229A60184B0922DA60C2
:100F7C00164B00221A61154B00229A61134801F09E
:100F8C00FBFA0346002B01D000F0A0F84FF480537D
:100F9C00BB6007F1080319460C4801F079FC0346C5
:100FAC00002B01D000F092F800233B6000237B6003
:100FBC003B461946054801F051FE0346002B01D073
:100FCC0000F084F800BF1837BD4680BD50010020EA
:100FDC0080B588B000AF07F1100300221A605A6088
:100FEC009A60DA602F4B9B692E4A43F01003936191
:100FFC002C4B9B6903F01003FB60FB68294B9B692E
:10100C00284A43F004039361264B9B6903F00403C5
:10101C00BB60BB68234B9B69224A43F00803936176
:10102C00204B9B6903F008037B607B6800224FF622
:10103C00FC711D4800F093FE00224FF67F711B4897
:10104C0000F08DFE4FF460433B6100237B61012374
:10105C00BB6107F110031946154800F0EFFC4FF681
:10106C00FC733B6101237B610023BB610223FB61A9
:10107C0007F1100319460C4800F0E0FC4FF67F73A3
:10108C003B6101237B610023BB610223FB6107F100
:10109C0010031946054800F0D1FC00BF2037BD46AF
:1010AC0080BD00BF0010024000080140000C014050
:1010BC000010014080B582B000AF786000F0C4F839
:1010CC00FFF798F800BF0837BD4680BD80B400AF6D
:1010DC0072B600BFFEE7000080B483B000AF78604A
:1010EC007B68642202FB03F3044A1360044B002266
:1010FC001A6000BF0C37BD4680BC7047E80000206A
:10110C00EC00002080B483B000AF78607B68642270
:10111C0002FB03F3044A1360044B00221A6000BF65
:10112C000C37BD4680BC7047F0000020F400002056
:10113C0080B483B000AF7860054A7B681360054BC0
:10114C0000221A6000BF0C37BD4680BC704700BF40
:10115C00200100201801002080B483B000AF78601B
:10116C00054A7B681360054B00221A6000BF0C37E0
:10117C00BD4680BC704700BF240100201C0100202C
:10118C0080B483B000AF7860054A7B681360054B70
:10119C0000221A6000BF0C37BD4680BC704700BFF0
:1011AC000C0100200001002080B483B000AF7860F7
:1011BC00054A7B681360054B00221A6000BF0C3790
:1011CC00BD4680BC704700BF100100200401002008
:1011DC0080B483B000AF7860054A7B681360054B20
:1011EC0000221A6000BF0C37BD4680BC704700BFA0
:1011FC00140100200801002080B500AF3220FFF759
:10120C00BFFF0020FFF7D0FF0020FFF7E1FF00BF7A
:10121C0080BD80B500AF0020FFF7B2FF3220FFF792
:10122C00C3FF0020FFF7D4FF00BF80BD80B500AF27
:10123C000020FFF7A5FF0020FFF7B6FF3220FFF7D5
:10124C00C7FF00BF80BD000080B400AF4B4B1B68D4
:10125C00002B15DD494B1B68494A82FB03125211C6
:10126C00DB17D31A474A1360444B1B68013B434AB4
:10127C001360424B1B68002B02DC434B01221A60AB
:10128C00424B1B68002B15DD404B1B683C4A82FB14
:10129C0003125211DB17D31A3D4A13603B4B1B68E8
:1012AC00013B3A4A1360394B1B68002B02DC394B6B
:1012BC0001221A60384B1B68002B0BDD364B1B6868
:1012CC00013B354A1360344B1B68002B02DC334B5B
:1012DC0001221A60324B1B68002B0BDD304B1B6854
:1012EC00013B2F4A13602E4B1B68002B02DC2D4B4D
:1012FC0001221A602C4B1B68002B0BDD2A4B1B6840
:10130C00013B294A1360284B1B68002B02DC274B3E
:10131C0001221A60264B1B68002B0BDD244B1B682B
:10132C00013B234A1360224B1B68002B02DC214B30
:10133C0001221A60204B1B68002B0BDD1E4B1B6817
:10134C00013B1D4A13601C4B1B68002B02DC1B4B22
:10135C0001221A601A4B1B68002B0BDD184B1B6803
:10136C00013B174A1360164B1B68002B02DC154B14
:10137C0001221A6000BFBD4680BC7047E800002007
:10138C001F85EB51D4000020EC000020F000002061
:10139C00D8000020F4000020F8000020FC00002001
:1013AC000C0100200001002010010020040100208D
:1013BC001401002008010020200100201801002049
:1013CC00240100201C01002080B485B000AF154B17
:1013DC009B69144A43F001039361124B9B6903F020
:1013EC000103BB60BB680F4BDB690E4A43F08053B3
:1013FC00D3610C4BDB6903F080537B607B680A4B39
:10140C005B68FB60FB6823F0E063FB60FB6843F008
:10141C008063FB60044AFB68536000BF1437BD4611
:10142C0080BC7047001002400000014080B584B0C1
:10143C0000AF78607B681B68B3F1804F13D10C4B05
:10144C00DB690B4A43F00103D361094BDB6903F001
:10145C000103FB60FB68002200211C2000F0B7FA9E
:10146C001C2000F0D0FA00BF1037BD4680BD00BF75
:10147C000010024080B400AFFEE780B400AFFEE77E
:10148C0080B400AFFEE780B400AFFEE780B400AFDD
:10149C00FEE780B400AF00BFBD4680BC704780B48F
:1014AC0000AF00BFBD4680BC704780B400AF00BF2A
:1014BC00BD4680BC704780B500AF00F095F900BF09
:1014CC0080BD000080B500AF024801F0F1F800BF0C
:1014DC0080BD00BF5001002080B400AF00BFBD46EE
:1014EC0080BC704780B500AF00220421074800F093
:1014FC0036FC00220821054800F031FC00221021A6
:10150C00024800F02CFC00BF80BD00BF0008014069
:10151C0080B500AF00222021074800F020FC0022FB
:10152C004021054800F01BFC00228021024800F0FD
:10153C0016FC00BF80BD00BF0008014080B500AFA5
:10154C0001220421074800F00AFC0022082105486A
:10155C0000F005FC00221021024800F000FC00BF46
:10156C0080BD00BF0008014080B500AF01222021E2
:10157C00074800F0F4FB00224021054800F0EFFB87
:10158C0000228021024800F0EAFB00BF80BD00BFB2
:10159C000008014080B500AF00220421074800F08C
:1015AC00DEFB01220821054800F0D9FB00221021A6
:1015BC00024800F0D4FB00BF80BD00BF0008014012
:1015CC0080B500AF00222021074800F0C8FB0122A3
:1015DC004021054800F0C3FB00228021024800F0A6
:1015EC00BEFB00BF80BD00BF0008014080B500AF4E
:1015FC0000220421074800F0B2FB00220821054814
:10160C0000F0ADFB01221021024800F0A8FB00BF46
:10161C0080BD00BF0008014080B500AF0022202132
:10162C00074800F09CFB00224021054800F097FB86
:10163C0001228021024800F092FB00BF80BD00BF58
:10164C000008014080B500AF04210E4800F09FFB5C
:10165C0020210C4800F09BFB00220821094800F0D7
:10166C007EFB00221021074800F079FB002240216C
:10167C00044800F074FB00228021024800F06FFB4C
:10168C0000BF80BD0008014080B500AF08210E48A6
:10169C0000F07DFB40210C4800F079FB0022042176
:1016AC00094800F05CFB00221021074800F057FBB2
:1016BC0000222021044800F052FB00228021024825
:1016CC0000F04DFB00BF80BD0008014080B500AFAD
:1016DC0010210E4800F05BFB80210C4800F057FBFA
:1016EC0000220421094800F03AFB00220821074897
:1016FC0000F035FB00222021044800F030FB0022D2
:10170C004021024800F02BFB00BF80BD00080140C7
:10171C00FFF7E2FE0B480C490C4A002302E0D458B8
:10172C00C4500433C4188C42F9D3094A094C002321
:10173C0001E013600432A242FBD301F0F9FAFFF787
:10174C0099FB70470000002094000020D82D000861
:10175C00940000209C010020FEE7000080B500AF43
:10176C00084B1B68074A43F010031360032000F07A
:10177C0023F90F2000F008F8FFF726FE0023184687
:10178C0080BD00BF0020024080B582B000AF786001
:10179C00124B1A68124B1B7819464FF47A73B3FB31
:1017AC00F1F3B2FBF3F3184600F03BF90346002BC0
:1017BC0001D001230EE07B680F2B0AD80022796838
:1017CC004FF0FF3000F003F9064A7B6813600023EA
:1017DC0000E0012318460837BD4680BD8800002074
:1017EC00900000208C00002080B400AF054B1B78CB
:1017FC001A46054B1B681344034A136000BFBD46D1
:10180C0080BC7047900000209801002080B400AF8D
:10181C00024B1B681846BD4680BC704798010020DF
:10182C0080B485B000AF78607B6803F00703FB6081
:10183C000C4BDB68BB60BA684FF6FF031340BB6010
:10184C00FB681A02BB68134343F0BF6343F40033D5
:10185C00BB60044ABB68D36000BF1437BD4680BC74
:10186C00704700BF00ED00E080B400AF044BDB68B4
:10187C001B0A03F007031846BD4680BC704700BF27
:10188C0000ED00E080B483B000AF0346FB7197F924
:10189C000730002B0BDBFB7903F01F02064997F98D
:1018AC0007305B09012000FA02F241F8232000BF47
:1018BC000C37BD4680BC704700E100E080B483B0BB
:1018CC0000AF03463960FB7197F90730002B0ADB38
:1018DC003B68DAB20C4997F907301201D2B20B44CB
:1018EC0083F800230AE03B68DAB20849FB7903F07D
:1018FC000F03043B1201D2B20B441A7600BF0C3713
:10190C00BD4680BC704700BF00E100E000ED00E088
:10191C0080B489B000AFF860B9607A60FB6803F0FE
:10192C000703FB61FB69C3F10703042B28BF0423E6
:10193C00BB61FB690433062B02D9FB69033B00E056
:10194C0000237B614FF0FF32BB6902FA03F3DA43E9
:10195C00BB681A407B699A404FF0FF317B6901FAF2
:10196C0003F3D9437B680B40134318462437BD4619
:10197C0080BC704780B582B000AF78607B68013B5B
:10198C00B3F1807F01D301230FE00A4A7B68013B4E
:10199C0053600F214FF0FF30FFF790FF054B0022F3
:1019AC009A60044B07221A60002318460837BD467C
:1019BC0080BD00BF10E000E080B582B000AF786061
:1019CC007868FFF72DFF00BF0837BD4680BD80B596
:1019DC0086B000AF0346B9607A60FB7300237B616D
:1019EC00FFF742FF78617A68B9687869FFF790FF72
:1019FC00024697F90F3011461846FFF75FFF00BFFC
:101A0C001837BD4680BD80B582B000AF0346FB7170
:101A1C0097F907301846FFF735FF00BF0837BD466A
:101A2C0080BD80B582B000AF78607868FFF7A2FF08
:101A3C00034618460837BD4680BD000080B48BB005
:101A4C0000AF7860396000237B6200233B6248E181
:101A5C0001227B6A02FA03F3FB613B681B68FA699B
:101A6C001340BB61BA69FB699A4240F037813B680D
:101A7C005B68A34A93425ED0A14A934275D8A14AAF
:101A8C00934258D09F4A93426FD89F4A934252D068
:101A9C009D4A934269D89D4A93424CD09B4A9342AB
:101AAC0063D89B4A934246D0994A93425DD8122BF5
:101ABC002AD8122B59D801A252F823F0431B000844
:101ACC001D1B00082F1B0008711B0008771B00084A
:101ADC00771B0008771B0008771B0008771B000892
:101AEC00771B0008771B0008771B0008771B000882
:101AFC00771B0008771B0008771B0008771B000872
:101B0C00251B0008391B0008824A934213D02CE095
:101B1C003B68DB683B6229E03B68DB6804333B6273
:101B2C0024E03B68DB6808333B621FE03B68DB6802
:101B3C000C333B621AE03B689B68002B02D10423F8
:101B4C003B6213E03B689B68012B05D108233B6289
:101B5C007B68FA691A6109E008233B627B68FA69C1
:101B6C005A6103E000233B6200E000BFBB69FF2B1E
:101B7C0001D87B6801E07B6804337B61BB69FF2B78
:101B8C0002D87B6A9B0002E07B6A083B9B003B61AE
:101B9C007B691A680F213B6901FA03F3DB431A4096
:101BAC00396A3B6901FA03F31A437B691A603B6893
:101BBC005B6803F08053002B00F09080564B9B69C0
:101BCC00554A43F001039361534B9B6903F00103A6
:101BDC00BB60BB68514A7B6A9B08023352F82330C6
:101BEC00FB607B6A03F003039B000F2202FA03F3F2
:101BFC00DB43FA681340FB607B68494A93420DD083
:101C0C007B68484A934207D07B68474A934201D18C
:101C1C00022304E0032302E0012300E000237A6A9C
:101C2C0002F0030292009340FA681343FB603B49B5
:101C3C007B6A9B080233FA6841F823203B685B6897
:101C4C0003F48013002B06D0384B9A683749BB69D4
:101C5C0013438B6006E0354B9A68BB69DB43334911
:101C6C0013408B603B685B6803F40013002B06D0B9
:101C7C002E4BDA682D49BB691343CB6006E02B4B26
:101C8C00DA68BB69DB4329491340CB603B685B686E
:101C9C0003F40033002B06D0244B5A682349BB694C
:101CAC0013434B6006E0214B5A68BB69DB431F4969
:101CBC0013404B603B685B6803F48033002B06D009
:101CCC001A4B1A681949BB6913430B6006E0174B92
:101CDC001A68BB69DB43154913400B607B6A0133FF
:101CEC007B623B681A687B6A22FA03F3002B7FF451
:101CFC00AFAE00BF00BF2C37BD4680BC704700BFE5
:101D0C0000003210000031100000221000002110E1
:101D1C0000001210000011100010024000000140E1
:101D2C0000080140000C014000100140000401407B
:101D3C0080B485B000AF78600B467B807B689A6876
:101D4C007B881340002B02D00123FB7301E000239E
:101D5C00FB73FB7B18461437BD4680BC704780B4C0
:101D6C0083B000AF78600B467B8013467B707B782A
:101D7C00002B03D07A887B681A6103E07B881A04F5
:101D8C007B681A6100BF0C37BD4680BC704780B4BD
:101D9C0085B000AF78600B467B807B68DB68FB60AE
:101DAC007A88FB6813401A04FB68D9437B880B4084
:101DBC001A437B681A6100BF1437BD4680BC70475C
:101DCC0080B586B000AF78607B68002B01D1012311
:101DDC006CE27B681B6803F00103002B00F087802A
:101DEC00924B5B6803F00C03042B0CD08F4B5B689D
:101DFC0003F00C03082B12D18C4B5B6803F480337B
:101E0C00B3F5803F0BD1894B1B6803F40033002BD7
:101E1C006CD07B685B68002B68D1012346E27B6841
:101E2C005B68B3F5803F06D1804B1B687F4A43F457
:101E3C00803313602EE07B685B68002B0CD17B4BEE
:101E4C001B687A4A23F480331360784B1B68774AFB
:101E5C0023F4802313601DE07B685B68B3F5A02F2F
:101E6C000CD1724B1B68714A43F4802313606F4B87
:101E7C001B686E4A43F4803313600BE06B4B1B689A
:101E8C006A4A23F480331360684B1B68674A23F457
:101E9C00802313607B685B68002B13D0FFF7B6FCC4
:101EAC00386108E0FFF7B2FC02463B69D31A642B99
:101EBC0001D90323FAE15D4B1B6803F40033002BBB
:101ECC00F0D014E0FFF7A2FC386108E0FFF79EFCAD
:101EDC0002463B69D31A642B01D90323E6E1534B29
:101EEC001B6803F40033002BF0D100E000BF7B68CB
:101EFC001B6803F00203002B63D04C4B5B6803F0B0
:101F0C000C03002B0BD0494B5B6803F00C03082B24
:101F1C001CD1464B5B6803F48033002B16D1434B2A
:101F2C001B6803F00203002B05D07B681B69012B97
:101F3C0001D00123BAE13D4B1B6823F0F8027B680A
:101F4C005B69DB00394913430B603AE07B681B6922
:101F5C00002B20D0364B01221A60FFF757FC38615A
:101F6C0008E0FFF753FC02463B69D31A022B01D958
:101F7C0003239BE12D4B1B6803F00203002BF0D0D5
:101F8C002A4B1B6823F0F8027B685B69DB0027494E
:101F9C0013430B6015E0264B00221A60FFF736FC4A
:101FAC00386108E0FFF732FC02463B69D31A022B7A
:101FBC0001D903237AE11D4B1B6803F00203002BAC
:101FCC00F0D17B681B6803F00803002B3AD07B68C8
:101FDC009B69002B19D0174B01221A60FFF716FCD6
:101FEC00386108E0FFF712FC02463B69D31A022B5A
:101FFC0001D903235AE10D4B5B6A03F00203002B5A
:10200C00F0D0012000F09AFA1CE00A4B00221A6072
:10201C00FFF7FCFB38610FE0FFF7F8FB02463B696A
:10202C00D31A022B08D9032340E100BF0010024051
:10203C0000004242800442429E4B5B6A03F0020362
:10204C00002BE9D17B681B6803F00403002B00F024
:10205C00A6800023FB75974BDB6903F08053002BA4
:10206C000DD1944BDB69934A43F08053D361914B70
:10207C00DB6903F08053BB60BB680123FB758E4B9F
:10208C001B6803F48073002B18D18B4B1B688A4A96
:10209C0043F480731360FFF7B9FB386108E0FFF776
:1020AC00B5FB02463B69D31A642B01D90323FDE02F
:1020BC00814B1B6803F48073002BF0D07B68DB68CA
:1020CC00012B06D17B4B1B6A7A4A43F00103136246
:1020DC002DE07B68DB68002B0CD1764B1B6A754AB4
:1020EC0023F001031362734B1B6A724A23F004033F
:1020FC0013621CE07B68DB68052B0CD16D4B1B6AF3
:10210C006C4A43F0040313626A4B1B6A694A43F03E
:10211C00010313620BE0674B1B6A664A23F0010351
:10212C001362644B1B6A634A23F0040313627B68DB
:10213C00DB68002B15D0FFF769FB38610AE0FFF76D
:10214C0065FB02463B69D31A41F28832934201D9AE
:10215C000323ABE0574B1B6A03F00203002BEED0BA
:10216C0014E0FFF753FB38610AE0FFF74FFB024620
:10217C003B69D31A41F28832934201D9032395E08B
:10218C004C4B1B6A03F00203002BEED1FB7D012BA1
:10219C0005D1484BDB69474A23F08053D3617B68F8
:1021AC00DB69002B00F08180424B5B6803F00C0371
:1021BC00082B61D07B68DB69022B46D13F4B002298
:1021CC001A60FFF723FB386108E0FFF71FFB02469C
:1021DC003B69D31A022B01D9032367E0354B1B68EB
:1021EC0003F00073002BF0D17B681B6AB3F5803FC2
:1021FC0008D1304B5B6823F400327B689B682D4917
:10220C0013434B602B4B5B6823F474127B68196A85
:10221C007B685B6A0B43274913434B60274B0122B6
:10222C001A60FFF7F3FA386108E0FFF7EFFA02469D
:10223C003B69D31A022B01D9032337E01D4B1B68D2
:10224C0003F00073002BF0D02FE01C4B00221A601F
:10225C00FFF7DCFA386108E0FFF7D8FA02463B6971
:10226C00D31A022B01D9032320E0124B1B6803F075
:10227C000073002BF0D118E07B68DB69012B01D1D6
:10228C00012313E00B4B5B68FB60FB6803F48032AB
:10229C007B681B6A9A4206D1FB6803F470127B6858
:1022AC005B6A9A4201D0012300E0002318461837DC
:1022BC00BD4680BD001002400070004060004242EC
:1022CC0080B584B000AF786039607B68002B01D199
:1022DC000123D0E06A4B1B6803F007033A689A426B
:1022EC0010D9674B1B6823F0070265493B68134301
:1022FC000B60634B1B6803F007033A689A4201D0EA
:10230C000123B8E07B681B6803F00203002B20D08C
:10231C007B681B6803F00403002B05D0594B5B68EA
:10232C00584A43F4E06353607B681B6803F008036E
:10233C00002B05D0534B5B68524A43F460535360F7
:10234C00504B5B6823F0F0027B689B684D4913434C
:10235C004B607B681B6803F00103002B40D07B684B
:10236C005B68012B07D1474B1B6803F40033002B30
:10237C0015D101237FE07B685B68022B07D1414BB1
:10238C001B6803F00073002B09D1012373E03D4B54
:10239C001B6803F00203002B01D101236BE0394BC6
:1023AC005B6823F003027B685B68364913434B6020
:1023BC00FFF72CFAF8600AE0FFF728FA0246FB68F0
:1023CC00D31A41F28832934201D9032353E02D4BA7
:1023DC005B6803F00C027B685B689B009A42EBD154
:1023EC00274B1B6803F007033A689A4210D2244B20
:1023FC001B6823F0070222493B6813430B60204BF8
:10240C001B6803F007033A689A4201D0012332E0BB
:10241C007B681B6803F00403002B08D0194B5B6826
:10242C0023F4E0627B68DB68164913434B607B68DE
:10243C001B6803F00803002B09D0124B5B6823F4D4
:10244C0060527B681B69DB000E4913434B6000F044
:10245C0021F802460B4B5B681B0903F00F030A497A
:10246C00CB5C22FA03F3094A1360094B1B6818462C
:10247C00FFF78AF9002318461037BD4680BD00BF10
:10248C000020024000100240AC2D00088800002003
:10249C008C00002080B487B000AF0023FB600023C9
:1024AC00BB6000237B6100237B6000233B611E4BE0
:1024BC005B68FB60FB6803F00C03042B02D0082B59
:1024CC0003D027E0194B3B6127E0FB689B0C03F022
:1024DC000F03174AD35C7B60FB6803F48033002B3B
:1024EC0010D0114B5B685B0C03F00103114AD35CF9
:1024FC00BB607B680D4A02FB03F2BB68B2FBF3F3D3
:10250C007B6104E07B680C4A02FB03F37B617B6913
:10251C003B6102E0054B3B6100BF3B6918461C3731
:10252C00BD4680BC704700BF0010024000127A000C
:10253C00BC2D0008CC2D000800093D0080B485B0EE
:10254C0000AF78600A4B1B680A4AA2FB03235B0AA4
:10255C007A6802FB03F3FB6000BFFB685A1EFA604B
:10256C00002BF9D100BF00BF1437BD4680BC7047AB
:10257C0088000020D34D621080B582B000AF786027
:10258C007B68002B01D1012341E07B6893F83D303F
:10259C00DBB2002B06D17B68002283F83C207868E4
:1025AC00FEF744FF7B68022283F83D207B681A68A3
:1025BC007B6804331946104600F056FA7B680122FA
:1025CC0083F846207B68012283F83E207B68012239
:1025DC0083F83F207B68012283F840207B6801222E
:1025EC0083F841207B68012283F842207B6801221A
:1025FC0083F843207B68012283F844207B68012206
:10260C0083F845207B68012283F83D20002318467F
:10261C000837BD4680BD000080B485B000AF78603F
:10262C007B6893F83D30DBB2012B01D0012335E000
:10263C007B68022283F83D207B681B68DA687B6824
:10264C001B6842F00102DA607B681B68164A9342F1
:10265C0009D07B681B68B3F1804F04D07B681B6882
:10266C00124A934211D17B681B689B6803F00703E5
:10267C00FB60FB68062B10D07B681B681A687B68B4
:10268C001B6842F001021A6007E07B681B681A683D
:10269C007B681B6842F001021A600023184614374D
:1026AC00BD4680BC704700BF002C014000040040B8
:1026BC0080B584B000AF78607B681B68DB68FB601A
:1026CC007B681B681B69BB60BB6803F00203002BB3
:1026DC0020D0FB6803F00203002B1BD07B681B6827
:1026EC006FF002021A617B6801221A777B681B6803
:1026FC009B6903F00303002B03D0786800F098F972
:10270C0005E0786800F08BF9786800F09AF97B683E
:10271C0000221A77BB6803F00403002B20D0FB685F
:10272C0003F00403002B1BD07B681B686FF00402C2
:10273C001A617B6802221A777B681B689B6903F419
:10274C004073002B03D0786800F072F905E07868CC
:10275C0000F065F9786800F074F97B6800221A774C
:10276C00BB6803F00803002B20D0FB6803F00803C0
:10277C00002B1BD07B681B686FF008021A617B680A
:10278C0004221A777B681B68DB6903F00303002BB8
:10279C0003D0786800F04CF905E0786800F03FF958
:1027AC00786800F04EF97B6800221A77BB6803F05A
:1027BC001003002B20D0FB6803F01003002B1BD060
:1027CC007B681B686FF010021A617B6808221A770D
:1027DC007B681B68DB6903F44073002B03D07868BB
:1027EC0000F026F905E0786800F019F9786800F037
:1027FC0028F97B6800221A77BB6803F00103002BD1
:10280C000CD0FB6803F00103002B07D07B681B681E
:10281C006FF001021A617868FEF74CFCBB6803F09C
:10282C008003002B0CD0FB6803F08003002B07D037
:10283C007B681B686FF080021A61786800F06FFA91
:10284C00BB6803F04003002B0CD0FB6803F0400383
:10285C00002B07D07B681B686FF040021A61786808
:10286C0000F0F8F8BB6803F02003002B0CD0FB68D9
:10287C0003F02003002B07D07B681B686FF020024D
:10288C001A61786800F042FA00BF1037BD4680BD6F
:10289C0080B584B000AF786039600023FB737B682F
:1028AC0093F83C30012B01D10223B4E07B68012268
:1028BC0083F83C207B68022283F83D207B681B68F0
:1028CC009B68BB60BB6823F07703BB60BB6823F4D9
:1028DC007F43BB607B681B68BA689A603B681B6867
:1028EC00B3F5005F3ED0B3F5005F00F28780B3F51F
:1028FC00805F00F08680B3F5805F7FD8702B1AD094
:10290C00702B7BD8602B50D0602B77D8502B3CD0C1
:10291C00502B73D8402B58D0402B6FD8302B64D011
:10292C00302B6BD8202B60D0202B67D8002B5CD0A1
:10293C00102B5AD062E07B6818683B6899683B683A
:10294C005A683B68DB6800F06AF97B681B689B6817
:10295C00BB60BB6843F07703BB607B681B68BA68DD
:10296C009A604FE07B6818683B6899683B685A68C6
:10297C003B68DB6800F053F97B681B689A687B68DE
:10298C001B6842F480429A603CE07B6818683B68A4
:10299C0059683B68DB681A4600F0CAF87B681B680C
:1029AC005021184600F021F92CE07B6818683B6830
:1029BC0059683B68DB681A4600F0E8F87B681B68CE
:1029CC006021184600F011F91CE07B6818683B6820
:1029DC0059683B68DB681A4600F0AAF87B681B68EC
:1029EC004021184600F001F90CE07B681A683B683E
:1029FC001B681946104600F0F8F803E00123FB733E
:102A0C0000E000BF7B68012283F83D207B68002238
:102A1C0083F83C20FB7B18461037BD4680BD80B444
:102A2C0083B000AF786000BF0C37BD4680BC7047E8
:102A3C0080B483B000AF786000BF0C37BD4680BC5B
:102A4C00704780B483B000AF786000BF0C37BD46D0
:102A5C0080BC704780B483B000AF786000BF0C3787
:102A6C00BD4680BC7047000080B485B000AF786074
:102A7C0039607B681B68FB607B682B4A934207D0EC
:102A8C007B68B3F1804F03D07B68284A934208D10E
:102A9C00FB6823F07003FB603B685B68FA681343C8
:102AAC00FB607B68204A934207D07B68B3F1804F70
:102ABC0003D07B681D4A934208D1FB6823F4407312
:102ACC00FB603B68DB68FA681343FB60FB6823F030
:102ADC0080023B685B691343FB607B68FA681A6091
:102AEC003B689A687B68DA623B681A687B689A6212
:102AFC007B680D4A934203D13B681A697B681A6361
:102B0C007B6801225A617B681B6903F00103002B6F
:102B1C0005D07B681B6923F001027B681A6100BF3A
:102B2C001437BD4680BC7047002C014000040040A7
:102B3C0080B487B000AFF860B9607A60FB681B6A3C
:102B4C007B61FB681B6A23F00102FB681A62FB685D
:102B5C009B693B613B6923F0F0033B617B681B0184
:102B6C003A6913433B617B6923F00A037B617A6901
:102B7C00BB6813437B61FB683A699A61FB687A69AD
:102B8C001A6200BF1C37BD4680BC704780B487B04A
:102B9C0000AFF860B9607A60FB681B6A7B61FB6808
:102BAC001B6A23F01002FB681A62FB689B693B618D
:102BBC003B6923F470433B617B681B033A69134305
:102BCC003B617B6923F0A0037B61BB681B017A69C5
:102BDC0013437B61FB683A699A61FB687A691A62F4
:102BEC0000BF1C37BD4680BC704780B485B000AFB9
:102BFC00786039607B689B68FB60FB6823F070032E
:102C0C00FB603A68FB68134343F00703FB607B6887
:102C1C00FA689A6000BF1437BD4680BC704780B418
:102C2C0087B000AFF860B9607A603B60FB689B6866
:102C3C007B617B6923F47F437B613B681A027B6871
:102C4C001A43BB6813437A6913437B61FB687A6947
:102C5C009A6000BF1C37BD4680BC704780B485B0FD
:102C6C0000AF786039607B6893F83C30012B01D160
:102C7C00022341E07B68012283F83C207B6802221E
:102C8C0083F83D207B681B685B68FB607B681B6876
:102C9C009B68BB60FB6823F07003FB603B681B68A0
:102CAC00FA681343FB607B681B68FA685A607B68A0
:102CBC001B68144A934209D07B681B68B3F1804FA0
:102CCC0004D07B681B68104A93420CD1BB6823F07C
:102CDC008003BB603B685B68BA681343BB607B686E
:102CEC001B68BA689A607B68012283F83D207B6878
:102CFC00002283F83C20002318461437BD4680BCC4
:102D0C00704700BF002C01400004004080B483B029
:102D1C0000AF786000BF0C37BD4680BC704780B4F4
:102D2C0083B000AF786000BF0C37BD4680BC7047E5
:102D3C0070B500260C4D0D4C641BA410A64209D195
:102D4C0000F022F800260A4D0A4C641BA410A6427F
:102D5C0005D170BD55F8043B98470136EEE755F8A0
:102D6C00043B98470136F2E7D02D0008D02D00081F
:102D7C00D02D0008D42D000803460244934200D104
:102D8C00704703F8011BF9E7F8B500BFF8BC08BCA5
:102D9C009E467047F8B500BFF8BC08BC9E4670470D
:102DAC0000000000000000000102030406070809EF
:102DBC0002030405060708090A0B0C0D0E0F101070
:042DCC000102000000
:042DD00031010008C5
:042DD4000D010008E5
:102DD80001000000010000000100000001000000E7
:102DE800C8000000C8000000C8000000C0000000C3
:102DF800F9000000A4000000B000000099000000E5
:102E08009200000082000000F8000000800000002E
:102E180090000000C0000000F9000000A4000000BD
:102E2800B00000009900000092000000820000003D
:102E3800F800000080000000900000000100000081
:102E4800020000000300000004000000050000006C
:102E5800020000000300000000127A0010000000C9
:042E68000100000065
:040000050800171DBB
:00000001FF
